:020000040000fa
:080000000001040000000000f3
:020000040000fa
:10000800ce140000ce140000ce140000ce14000060
:10001800ce140000ce140000ce140000ce14000050
:10002800ce140000ce140000ce140000ce14000040
:10003800ce140000ce140000ce140000ce14000030
:10004800ce140000ce140000ce140000e41300000b
:10005800ce140000ce140000ce140000ce14000010
:10006800ce140000ce140000ce140000ce14000000
:10007800ce140000ce140000ce140000ce140000f0
:10008800ce140000ce140000ce1400003208000088
:10009800ce140000ce140000ce140000ce140000d0
:1000a800ce140000ce140000ce140000ce140000c0
:1000b800ce140000ce140000ce140000ce140000b0
:1000c800ce140000ce140000ce140000ce140000a0
:1000d800ce140000ce140000ce140000ce14000090
:1000e800ce140000ce140000ce140000ce14000080
:0800f800ce140000ce1400003c
:020000040000fa
:10010800ce140000ce140000ce140000ce1400005f
:10011800ce140000ce140000ce140000ce1400004f
:10012800ce140000ce140000ce140000ce1400003f
:10013800ce140000ce140000ce140000ce1400002f
:10014800ce140000ce140000ce140000e41300000a
:10015800ce140000ce140000ce140000ce1400000f
:10016800ce140000ce140000ce140000ce140000ff
:10017800ce140000ce140000ce140000ce140000ef
:10018800ce140000ce140000ce1400003208000087
:10019800ce140000ce140000ce140000ce140000cf
:1001a800ce140000ce140000ce140000ce140000bf
:1001b800ce140000ce140000ce140000ce140000af
:1001c800ce140000ce140000ce140000ce1400009f
:1001d800ce140000ce140000ce140000ce1400008f
:1001e800ce140000ce140000ce140000ce1400007f
:0801f800ce140000ce1400003b
:020000040000fa
:100200006fac20000e7f22000e018800000000006d
:10021000000020000000e000020032000001200089
:10022000200288000c000700805e220001002000f0
:1002300011000700000020000000e0000200320072
:1002400000000200000000007c0f0200000000001f
:100250000040da000000fe004440a9000004200035
:100260000000e0000300320000002000a001880030
:100270004440a8000000060091018800800078003a
:100280000000eb0015003700e280400032a0b4000f
:100290009101ba00e280400032a0b4009102ba009d
:1002a000e280400032a0b4000002eb00472bde00e9
:1002b000f507b200602ce10004003a000059eb00a1
:1002c0008301e900fdff3e00040037006128e100e2
:1002d000010032000082eb00040007001101ba00a7
:1002e0000200e000e8ff3a00000006003159ba00c1
:1002f0008301e9000c0032002159ba008301e900b2
:10030000080032000400e00003003a00e2804000f0
:1003100032a0b400f5ff370011d9ba008301e9001b
:10032000faff3a008100e800e180400032a0b4000a
:10033000000006006022b800060220000000d00085
:100340008180d2000482d2008582d2000000a00009
:100350000202520083825a0003003100020242006e
:1003600083824a000000a1000603e900f3ff3a007f
:040370000000060083
:020000040000fa
:100374000000000000800000000000000080000079
:100384000000000000800000000000000080000069
:100394000000000000800000000000000080000059
:1003a4000000000000800000000000000080000049
:1003b4000000000000000000000000000000000039
:1003c4000000000000000000000000000000000029
:1003d4000000000000000000000000000000000019
:1003e4000000000000000000000000000000000009
:020000040000fa
:1003f4000000fa00d51c800004f02f008482620003
:10040400264d800004f02f0004026300848f520004
:100414000a003600254d8000f40f2000048262009b
:10042400244d8800254d8000d61c800004f02f0048
:100434000402630004824200244d8800d51c80001d
:10044400f40f200084826200264d8000f40f200007
:1004540004026300848f52000a003600254d800098
:1004640004f02f0004826200244d8800254d800092
:10047400d61c8000f40f20000402630004824200b2
:10048400244d880054342c00244b880034122f004f
:10049400344b8800043a8000c44a880026000700d0
:1004a400ea000700de010700ec010700449c20007d
:1004b400940278000400280004826200e00f5200d5
:1004c400010032000b020700144e8000e44a880049
:1004d400e54a8000e44d800004824200e44a88003a
:1004e400e54a8000f44d800004824200e44a88001a
:1004f400e54a8000044e800004824200e44a8800f9
:10050400e54a8000c44d800004824200e44a880029
:10051400e54a8000b44d800004824200e44a880029
:10052400e54a8000a44d800004824200e44a880029
:100534000080fa00000006000a00fa001e003700de
:100544008e00780040802000ba1007009e027800d8
:10055400840720008482620084032000848f520078
:1005640004003200c44d80000402e800c44d880039
:10057400110037009e027800844b2100848f5200c2
:1005840003003a000e007800160007000a00370046
:100594009e02780084632100848f520003003a0095
:1005a4000e0078006800070003003700a44d8000a7
:1005b4000402e800a44d8800408020004f1007008a
:1005c40000027800e00f5200ddff3a0094458000fd
:1005d400e44d880054408000f44d88000080fa0007
:1005e400000006000400fa00100798001e029000a4
:1005f400c4029000050f780004002f009e026200e0
:1006040004002700848f520004003200b44d80009f
:100614000402e800b44d88001a003700f4ff2000fb
:100624001e0f6200f40f20009e027800848f520097
:1006340003003e001e009000140007001100370064
:10064400f41f20009e027800848f520003003e00b5
:100654001e009000240007000a003700f43f200029
:100664009e027800848f520003003e001e0090001a
:10067400f410070003003700b44d80000402e800c2
:10068400b44d88000080fa00000006000400fa005f
:10069400100798001e029000c4029000050f780015
:1006a400f4ff20001e0f62001e027800e10f5200ca
:1006b40003003200e30f520003003200040037004d
:1006c4000000fe0006003700f10c070004003700ac
:1006d400b44d80000402e800b44d8800000000001e
:1006e4000080fa00000006000400fa0010079800d9
:1006f4001e029000c4029000050f7800f4ff200051
:100704001e0f62001e029000140290008400780004
:100714001e007800260307001e029000a402900029
:100724001e02e8008500780004007800200307001a
:1007340000000000000000000000000000000000b5
:100744000080fa00000006000e00fa00600798001e
:100754006e029000c4029000050f780004002f0080
:100764009e02620004002700848f520004003200bd
:10077400b44d80000402e800b44d88002e00370018
:10078400f4ff20001e0f6200f48f20009e02780008
:10079400848f520004003600f49f20009e027800eb
:1007a400848f520004003600b44d80000402e80037
:1007b400b44d88002000370004802f001e0f420033
:1007c400c4032a00140798006e029000c40290002b
:1007d40004802f0004824200540798000002eb00ba
:1007e400440798001e02e80004007800750307001f
:1007f40000027800340798001e0078007103070097
:1008040000027800240798000000000000000000a7
:10081400000000000e82e80084007800c08a2000f6
:10082400ec0f0700741b800068026200e00f5200a6
:1008340001003a008760a8000080fa00000006006a
:100844000000fa000080fa00000006000000fa0030
:10085400250480000404200004826200e00f52009a
:10086400a000320084c0a900044080000402e80013
:1008740004408800044080006f0262000440880045
:100884009a0007000440800005002000f6002000c4
:1008940007002000860f5200878f5a0091003e0007
:1008a400046001000f0037001800370021003700f2
:1008b4002a003700330037003c003700450037007a
:1008c4004e003700570037006000370069003700da
:1008d400720037007b0037007c0037007d00370052
:1008e4007e003700f44a8000e74a8000d64a800040
:1008f400c54a8000870178000601780085007800e9
:100904000000eb008e0007007600370024962000dc
:1009140014037800054b80000002eb008001eb001b
:10092400060178008500780010002000840007008c
:100934006c003700744b8000674b8000564b80007e
:10094400454b800087017800060178008500780017
:10095400200020007a00070062003700b44b8000ba
:10096400a74b8000964b8000854b80008701780060
:100974000601780085007800300020007000070030
:1009840058003700f44b8000e74b8000d64b8000c2
:10099400c54b800087017800060178008500780047
:1009a40040002000660007004e003700344c8000f1
:1009b400274c8000164c8000054c8000870178008d
:1009c4000601780085007800500020005c000700d4
:1009d40044003700544d8000474d8000364d800060
:1009e400254d800087017800060178008500780095
:1009f40080002000520007003a003700944d800028
:100a0400874d8000764d8000654d80008701780019
:100a14000601780085007800900020004800070057
:100a240030003700d44d8000c74d8000b64d8000a3
:100a3400a54d8000870178000601780085007800c4
:100a4400a00020003e00070026003700144e80005e
:100a5400074e8000f64d8000e54d80008701780048
:100a64000601780085007800b000200034000700fb
:100a74001c003700d44c8000c74c8000b64c80006a
:100a8400a54c800087017800060178008500780075
:100a9400600020002a00070012003700144d800077
:100aa400074d8000f64c8000e54c800087017800fb
:100ab40006017800850078007000200020000700ff
:100ac40008003700fa0f070006003700041007007b
:100ad400040037000d100700020037000e10070055
:100ae400000000000080fa00000006000a00fa007e
:100af400c4832a00040f780084982000140278002c
:100b040014079800a4982000140278002407980081
:100b1400644c800034079800744c800044079800ab
:100b2400e13520000e007800710f0700444d80006d
:100b34000402e800444d88000080fa00000006002a
:100b44001400fa0050079800610798007207980093
:100b5400030f9800140f98005e0290006f02620069
:100b640054079800de02900004072000050272007a
:100b7400540798005e029000040242005407980053
:100b8400de02900004602000050272005407980001
:100b94005e0290004222dd00540798005e0290003d
:100ba400040f78009e02780004f02f000482620093
:100bb400040f78001e0278004322dd00040f780041
:100bc4009e0278005e039000f40f2000040263008c
:100bd40005027200040f78001e0a900014079800a2
:100be4000e0a9000240798007e02900034079800b3
:100bf4006e029000440798008e007800c08a20009e
:100c0400f40e0700741b800068026200e00f5200bb
:100c140001003a008760a8000080fa000000060086
:100c24000000fa0025048000040820000482620009
:100c3400e00f52000700320084e0a900144e800047
:100c44000402e800144e8800144e800024568800e4
:100c54008829a8000080fa00000006000000fa00bd
:100c640014408000e00f520005003a00444c80001c
:100c740061026200e00f5200010032009bff070096
:100c8400444c8000614262000482fb0014408800ee
:100c94000080fa00000006000200fa00000f78004d
:100ca400449c20009e02780095029000050a78007a
:100cb4001e027800a4029000449c200015029800b3
:100cc4001e027800b4029000449c20002502980083
:100cd400449c20008082eb00350298000060fe00f6
:100ce4008829a9000002eb00540888000080fa005b
:100cf400000006000000fa000002eb0094458800a2
:100d04000002eb00544088000002eb0014568800f7
:100d14000002eb00245688000002eb00c44a88005d
:100d24000002eb00d44a88000002eb00e44a880089
:100d34000002eb00f44a88000002eb00044b880038
:100d44000002eb00244b88000002eb00344b8800c7
:100d54000002eb00444b88000002eb00544b880077
:100d64000002eb00644b88000002eb00744b880027
:100d74000002eb00844b88000002eb00944b8800d7
:100d84000002eb00a44b88000002eb00b44b880087
:100d94000002eb00c44b88000002eb00d44b880037
:100da4000002eb00e44b88000002eb00f44b8800e7
:100db4000002eb00044c88000002eb00144c880095
:100dc4000002eb00244c88000002eb00344c880045
:100dd4000002eb00244d88000002eb00344d880033
:100de4000002eb00444d88000002eb00544d8800e3
:100df4000002eb00644d88000002eb00744d880093
:100e04000002eb00844d88000002eb00944d880042
:100e14000002eb00a44d88000002eb00b44d8800f2
:100e24000002eb00c44d88000002eb00d44d8800a2
:100e34000002eb00e44d88000002eb00f44d880052
:100e44000002eb00044e88000002eb00144e880000
:100e54000002eb00b41c880041e7a90041c7a900c7
:100e640040e7a9004087a9004067a9004047a900be
:100e74004027a9004007a90040c7a9000080fa0044
:100e8400000006000000fa00145680000402e80086
:100e940014568800449c20008002eb00050a780068
:100ea400449c20001500200015029800449c20005a
:100eb4002500200025029800449c200035002000d5
:100ec4003502980014568000044b88002456800094
:100ed400144e88008f60a9008760a9000405800073
:100ee40004c0a10004d0a10004e0a000040588000f
:100ef4000002eb00b41c88009803a8009823a80003
:100f04009843a80098a3a80040802000820e070000
:100f1400c08a2000800e070004402000841c880042
:100f240000000000851c8000040e20008482620002
:100f340004082000848f5200faff3a0014002000b5
:100f4400941c8800a4392000a41c8800148021006b
:100f540084198800d4872100c41988000002eb009a
:100f640004188800048020004418880084032100a9
:100f740084188800c47f2100c4188800c47f21001d
:100f840004198800c47f210044198800140020003b
:100f9400741b880024002000f41a88003400200008
:100fa400741a8800040c2000241b8800040c200000
:100fb400a41a8800040c2000241a88000002eb0004
:100fc400741c88000002eb00f41b88000002eb0094
:100fd400841c880000000000851c8000040e200092
:100fe40004826200e00f5200fbff3a008f60a80009
:100ff40054fb25008408880024f420006408880039
:101004000002eb003408880084c0a9008cc0a90049
:1010140011e1a800d4fb2500940888005462220042
:101024007408880084e0a9008ce0a90013e1a800fa
:101034000002eb00a44c8800c4e52800b44c8800ee
:10104400441f2000c44c880014042000d44c8800a1
:1010540054062000e44c88000080fa0000000600da
:101064003600f800809fbe00829fbe00849fbe00b1
:10107400869fbe00889fbe004400f8004200f8002e
:101084000a00fa008760a900954d8000b41c800016
:1010940005027200944d8800751c8000040820002d
:1010a40004826200e00f520024003200741c8000ad
:1010b40061026200e00f52000f003a00644d8000ac
:1010c4000402e800644d8800e13820000e00780036
:1010d4002802800019028000aa0d07001902880066
:1010e400280288002e029000a44a88001e02900064
:1010f400b44a880010003700744d80000402e800f0
:10110400744d8800e13820000e0078002802800029
:10111400190280009b0d070019028800280288002c
:101124000e0078002802800019028000dafe070011
:1011340019028800280288009603a900f51b800084
:101144000408200004826200e00f52000b00320009
:10115400844d80000402e800844d8800e1372000bb
:10116400408020002802800019028000680d0700da
:1011740019028800280288009623a900741b8000a5
:1011840068026200e00f520014003a00c08a200096
:101194002802800019028000580d070019028800f7
:1011a4002802880000027800e00f52000b00320091
:1011b400e1362000c08a2000280280001902800045
:1011c400b50d070019028800280288009643a9007b
:1011d400d44d80000402e800d44d8800b51c800082
:1011e4000402200004826200e00f52000900320071
:1011f400054e8000b41c800005027200044e880075
:10120400344d80000402e800344d880096a3a90000
:1012140008003700451780000400220004826200a1
:10122400e00f520002003200e9a2a90001003700d9
:10123400e9a2a800d51c800004f02f00848262007b
:10124400264d800004f02f0004026300848f5200b6
:101254000a003600254d8000f40f2000048262004d
:10126400244d8800254d8000d61c800004f02f00fa
:101274000402630004824200244d8800d51c8000cf
:10128400f40f200084826200264d8000f40f2000b9
:1012940004026300848f52000a003600254d80004a
:1012a40004f02f0004826200244d8800254d800044
:1012b400d61c8000f40f2000040263000482420064
:1012c400244d88000080fa004200f9004400f9002f
:1012d4004f04be004f03be004f02be004f01be00cc
:1012e4004f00be003600f900004006000e00fa0070
:1012f400500798006107980084032000040f7800c9
:101304006e029000140798005e029000e00f5200f5
:10131400030032000082eb0024079800020037002b
:101324000002eb00240798002e029000144c880061
:10133400e13420000e0078006d0d0700544d80004c
:101344000402e800544d88000080fa000000060002
:101354000c00fa00000f7800120798002307980089
:101364003407980045079800214f9800364f98009d
:101374002e489000b6eab7003e489000b7eab7009e
:101384001e027800c4558800b7cabf006033b80095
:101394001e029000ae0290003e019000ce0190002b
:1013a40001022b00590b07000080fa000000060020
:1013b4001000fa006007980071079800c455800077
:1013c4008402d1006e029000848f520079003600ae
:1013d4007e0290004822de00644798007e0290005e
:1013e400744798006e02900004024200440798007b
:1013f4004e0290004822de00244f98004e029000d6
:10140400344f980014002000040f780074ab2000bf
:1014140014427800044078007a0b07000002780038
:10142400040f780074ab2000144278000440780064
:10143400950b0700000278001e0f720075ab2000a8
:101444009542780064ab200014427800854078000f
:1014540004407800ce0b0700000278001e0f7200d3
:10146400441080004f22de00044278000482fb0016
:10147400240798000002eb001407980023003700ab
:1014840074ab20001442780004407800300c07004c
:10149400000278001e0f720074ab20001442780022
:1014a40004407800570b070000027800040f78000e
:1014b40074ab20001442780004407800720b0700db
:1014c400000278001e0f720075ab20009542780070
:1014d40064ab200014427800854078000440780012
:1014e400ab0b0700000278001e0f7200441080004e
:1014f4004f22de00044278000482fb002407980097
:101504001e0290000402e800140798002e029000c6
:10151400e00f5200040032009e029000840c200070
:10152400848f5200d6ff360074ab2000144278003a
:10153400844078002e489000950b07000002780044
:101544001e0f720074ab20001442780084407800af
:101554003e4890008e0b0700000278001e0f7200b8
:1015640074ab200014427800844078007e409000e0
:10157400870b0700000278001e0f720074ab200076
:1015840014427800844078006e409000800b07007d
:10159400000278001e0f720074ab20001442780021
:1015a40004407800ea0b0700000278001e0f720066
:1015b400020037000082eb00040f78000080fa007c
:1015c400000006000e00fa0060079800c455800071
:1015d4008402d1006e029000848f52008c00360089
:1015e4006e02900004024200440798004e029000ec
:1015f4004822de00244f98004e029000344f980099
:1016040074ab20001442780004407800fd0a0700ff
:1016140000027800040f780074ab200014427800b4
:1016240004407800180b0700000278001e0f7200b7
:1016340075ab20009542780064ab2000144278001a
:101644008540780004407800510b070000027800c0
:101654001e0f7200441080004f22de000442780006
:101664000482fb00340798000002eb002407980072
:101674002300370074ab2000144278000440780043
:10168400b30b0700000278001e0f720074ab200039
:101694001442780004407800da0a07000002780057
:1016a400040f780074ab20001442780004407800e2
:1016b400f50a0700000278001e0f720075ab2000c7
:1016c4009542780064ab200014427800854078008d
:1016d400044078002e0b0700000278001e0f7200f1
:1016e400441080004f22de00044278000482fb0094
:1016f400340798002e0290000402e80024079800a2
:101704003e029000e00f520004003200ae0290004e
:10171400840c2000848f5200d6ff360074ab200066
:1017240014427800844078002e489000180b07007b
:10173400000278001e0f720074ab2000144278007f
:10174400844078003e489000110b070000027800a6
:101754001e0f720074ab200014427800044078001d
:10176400ea0a0700000278001e0f720075ab200021
:101774009542780064ab2000144278000404a00071
:101784008540780004407800010b070000027800cf
:101794001e0f720074ab20001442780004407800dd
:1017a400320b0700000278002447980074ab200035
:1017b4001442780004407800860b07000002780089
:1017c4001e0f720074ab20001442780004407800ad
:1017d400260b0700000278003447980074ab200001
:1017e40014427800044078009c0b07000002780043
:1017f4001e0f720074ab200014427800044078007d
:10180400530b0700000278001e0f72000600370019
:101814000082eb00040f78000042eb00244798009c
:101824000042eb00344798003e4290000482fb00e3
:10183400440798004e0290004822dd0044079800b7
:101844002e4290000482fb00ce02900004824200eb
:10185400440798004e029000040078000080fa00cb
:10186400000006001400fa0070079800010f9800a9
:10187400120f98000e0a9000e00f520095003200fb
:101884000e0a9000f00f52000200360004012000fe
:10189400040f9800c4558000c522de007e0290002b
:1018a400848f5200890036007e0290004522dd00bc
:1018b400440798004e0290004822de00244f98000e
:1018c4004e029000344f980074ab2000144278000c
:1018d400044078004b0a070000027800040f7800e7
:1018e40074ab20001442780004407800660a0700b4
:1018f400000278001e0f720075ab2000954278003c
:1019040064ab2000144278008540780004407800dd
:101914009f0a0700000278001e0f72004410800026
:101924004f22de00044278000482fb003407980052
:101934000002eb00240798002300370074ab20005a
:101944001442780004407800010b0700000278007c
:101954001e0f720074ab200014427800044078001b
:10196400280a070000027800040f780074ab2000f6
:101974001442780004407800430a0700000278000b
:101984001e0f720075ab20009542780064ab2000f6
:101994001442780085407800044078007c0a0700ef
:1019a400000278001e0f7200441080004f22de00f7
:1019b400044278000482fb00340798002e02900051
:1019c4000402e800240798003e029000e00f520051
:1019d40004003200ae029000840c2000848f520078
:1019e400d6ff360074ab200014427800844078009f
:1019f4002e489000660a0700000278001e0f72004d
:101a040074ab200014427800844078003e48900073
:101a14005f0a0700000278001e0f72000002eb004c
:101a2400140798001e0037001e02900004024200b2
:101a34009e0a900004824200140278004822de00cc
:101a4400444f98001e029000040242009e0a900037
:101a54000482420014027800544f980074ab2000b2
:101a640014427800844078005e489000480a0700d9
:101a7400000278001e0f720074ab2000144278003c
:101a8400844078004e489000410a07000002780024
:101a94001e0f72001e0290000402e8001407980052
:101aa4009e0290000e0a9000848f5200deff3900df
:101ab40074ab20001442780004407800a40a0700a4
:101ac400000278001e0f7200020037000082eb0053
:101ad400040f78000080fa00000006001400fa00e9
:101ae40070079800010f9800120f98000e0a9000da
:101af400e00f5200fd0032000e0a9000f00f520079
:101b04000200360004012000040f9800c455800030
:101b1400c522de007e029000848f5200ed00360064
:101b24007e0290004522dd00440798004e0290009a
:101b34004822de00244f98004e029000344f980053
:101b440074ab20001442780004407800ad0907000b
:101b540000027800040f780074ab2000144278006f
:101b640004407800c8090700000278001e0f7200c4
:101b740075ab20009542780064ab200014427800d5
:101b84008540780004407800010a070000027800cc
:101b94001e0f7200441080004f22de0004427800c1
:101ba4000482fb00340798000002eb00240798002d
:101bb4002300370074ab20001442780004407800fe
:101bc400630a0700000278001e0f720074ab200045
:101bd40014427800044078008a0907000002780063
:101be400040f780074ab200014427800044078009d
:101bf400a5090700000278001e0f720075ab2000d3
:101c04009542780064ab2000144278008540780047
:101c140004407800de090700000278001e0f7200fd
:101c2400441080004f22de00044278000482fb004e
:101c3400340798002e0290000402e800240798005c
:101c44003e029000e00f520004003200ae02900009
:101c5400840c2000848f5200d6ff360074ab200021
:101c640014427800844078002e489000c809070088
:101c7400000278001e0f720074ab2000144278003a
:101c8400844078003e489000c109070000027800b3
:101c94001e0f720074ab20001442780004407800d8
:101ca4009a090700000278001e0f720075ab20002d
:101cb4009542780064ab2000144278000404a0002c
:101cc4008540780004407800b109070000027800dc
:101cd4001e0f72000002eb00140798003a00370050
:101ce40074ab20001442780004407800df09070038
:101cf40000027800444f980074ab2000144278002e
:101d040004407800330a0700000278001e0f7200b6
:101d140074ab20001442780004407800d309070013
:101d240000027800544f980074ab200014427800ed
:101d340004407800270a0700000278001e0f720092
:101d44001e029000040242009e0a90008482420017
:101d54005e4a90000482fb00840a78001e02900010
:101d6400040242009e0a9000848242001e029000f7
:101d7400040242001e0b9000040243001402780087
:101d84004822dd00840a78001e029000040242000a
:101d94009e0a9000848242001e02900004024200c7
:101da4001e0b900004024300140378004e4a900076
:101db4000482fb0004024300840a78001e0290009f
:101dc4000402e800140798000e0a90008402e90057
:101dd4001e029000848f5200c1ff3e0074ab2000ad
:101de4001442780004407800a0090700000278003b
:101df400444f980074ab20001442780004407800eb
:101e0400f4090700000278001e0f720074ab200072
:101e14001442780004407800940907000002780016
:101e2400544f980074ab20001442780004407800aa
:101e34000a0a0700000278001e0f72001e029000ba
:101e4400040242009e0a9000848242005e4a90008e
:101e54000482fb00840a78001e02900004024200ff
:101e64009e0a9000848242001e02900004024200f6
:101e74001e0b900004024300140278004822dd0087
:101e8400840a78001e029000040242009e0a900018
:101e9400848242001e029000040242001e0b900045
:101ea40004024300140378004e4a90000482fb00ad
:101eb40004024300840a780074ab200014427800c2
:101ec40004407800a2090700000278001e0f720087
:101ed400060037000082eb00040f78000042eb009c
:101ee400444f98000042eb00544f98000080fa00e1
:101ef400000006000000fa00040120005455880088
:101f040001000700feff37000000fa00545580006e
:101f140005032000850f52002a003200050320002b
:101f2400850f520006003e00f00f52000e003200f2
:101f340005022000850f52001300320074003700a0
:101f440005052000850f52005a00320005062000c6
:101f5400850f52006500320005042000850f5200f1
:101f6400440032006a0037006a0107008809a800ab
:101f74008849a8000002eb002455880004022000d0
:101f840054558800650037008809a80065000700db
:101f94000700370073000700444c800064026200ad
:101fa400e00f520002003a00040320005455880058
:101fb4005555800004022000848f5200f5ff320042
:101fc40056003700245580000402e8002455880098
:101fd4008809a8000002eb00445588005900070056
:101fe4001f0037005f00070045558000743e200045
:101ff400848f52000f0036000002eb002455880045
:10200400843e200044558800a498200014027800df
:10201400e00f520005003200449c200014027800b6
:1020240061026200e00f520002003200040420004a
:102034005455880034558000e00f520008003200e7
:1020440024558000e50f520003003e0004052000e3
:1020540054558800020037000406200054558800b7
:102064005555800004032000848f5200ddff3200a8
:102074002a0037008809a900a49820008002eb00f8
:10208400050a780006003700360007003455800042
:10209400e00f52000200320004052000545588006d
:1020a4005555800004042000848f5200f6ff32004e
:1020b4001a0037001b0007008809a8000600370033
:1020c4002800070034558000e00f520002003a0057
:1020d4000402200054558800555580000405200052
:1020e400848f5200f6ff32000c0037000d00070009
:1020f4008809a8008969a8000100370019000700b1
:102104005555800004062000848f5200fbff3200e6
:102114000406200054558800000000000080fa00e6
:10212400000006000000fa000002eb00a45388003f
:102134000002eb0064548800d622a8000080fa0054
:10214400000006000000fa0014002000a4538800d8
:102154001400200064548800d622a9000080fa00ec
:10216400000006000000fa00a1f80700a516800090
:102174000400210004826200e00f520003003200d8
:102184008b89a80014002000345588003504800091
:102194000404200004826200e00f5200db003200dd
:1021a40086c0a90024558000444b88003455800023
:1021b400544b880044558000644b8800545580007b
:1021c400744b8800449c200014027800844b8800df
:1021d40054548000944b880094538000a44b88008e
:1021e40004558000b44b880064528000755280000e
:1021f40004027800c44b88002450800035508000cd
:1022040004027800d44b880084528000e44b880098
:1022140044508000f44b880084148000044c8800ef
:1022240094148000144c8800a4148000244c88006a
:10223400b4148000344c88005555800004032000f9
:10224400848f520003003a00445580000402e800e1
:10225400445588000002eb00c44a8800755580008c
:102264008455800004824200d44a88009555800039
:10227400a455800004824200f44a8800444c800043
:1022840061026200e00f520002003200e982a900fc
:1022940001003700e982a800a51680000440200050
:1022a40004826200e00f5200020032008949a80053
:1022b400010037008949a900c0a4200005050700d2
:1022c40040a02000030507000002eb0034558800fd
:1022d400a51680000400210004826200e00f520071
:1022e400030032008b89a8001400200034558800b4
:1022f400449c20001402780070026200e00f520037
:10230400020032008bc9a80006003700449c20005c
:102314001402780061026200e00f520001003200f2
:102324008bc9a900554c800004002400048262007b
:10233400e00f5200020032001400200034558800df
:10234400444c800062026200e00f5200030032003d
:102354008be9a800140020003455880055558000ee
:1023640004042000848f520004003200555580007c
:1023740004032000848f520045003a004454800036
:102384002453880084538000e450880040a0200037
:102394000f05070000027800e00f5200030032002e
:1023a4008a09a800140020003455880040a02000a9
:1023b4001505070000027800e00f52000300320008
:1023c4008a29a800140020003455880040a0200069
:1023d4001b05070000027800e00f520003003200e2
:1023e4008a49a800140020003455880040a0200029
:1023f4005e05070000027800e00f5200030032007f
:102404008a69a8001400200034558800c0a4200064
:10241400ef04070000027800e00f520003003200ce
:102424008ac9a8001400200034558800c0a42000e4
:10243400f504070000027800e00f520003003200a8
:102444008ae9a8001400200034558800c0a42000a4
:10245400fb04070000027800e00f52000300320082
:102464008b09a8001400200034558800c0a4200063
:102474003e05070000027800e00f52000800320019
:102484008b29a8001400200034558800040037006c
:102494000002eb00245388000002eb00e4508800a3
:1024a4005555800004042000848f5200040032003b
:1024b4005555800004032000848f52000c003a001c
:1024c40000a720005504070080a82000530407003b
:1024d40094538000555480002303200005017800a4
:1024e40001032000c09c20002202070007003700df
:1024f400d453800095548000230320000501780004
:1025040001032000c09c20001a0207000080fa008a
:10251400000006000200fa0014002000044d8800a8
:102524000002eb00f44c880014002000144d8800d5
:10253400a49820008002eb00050a7800849820000b
:102544008002eb00050a78000002eb00644c88006e
:102554000002eb00744c88000002eb004454880035
:102564000002eb0084538800c404800004c0a1006e
:1025740004d0a00004e0a000c404880004602f007c
:1025840004168800b4072f003416880024002000a5
:102594006416880004702f0094168800341c2000f0
:1025a400f4168800c4002c0024178800d762a80001
:1025b400440d2300e40888000002eb00c4088800ee
:1025c40086c0a900d4f92d0004098800f4cf27009f
:1025d40004158800e4fd26001415880084442e00a8
:1025e40024158800546e2e003415880074f82000d9
:1025f4004415880004062000541588008560a9004d
:102604008d60a800a1e2a80024002000450020005d
:10261400849fbe0006002800c7002000045a220040
:1026240065022000026829008309200011c0b3005c
:10263400c09c2000de000700e487570016c0b300ea
:1026440001cab30004a82100650020000268290023
:1026540083092000000022003dfb070009fa07005f
:102664000003eb00c5512200045f25008041eb000c
:102674000001eb009199210080a820009a03070033
:102684000003eb008002eb0004ee220023c0b30041
:102694000001eb009199210000a72000920307009c
:1026a40024032000841f7800077d200006002200f8
:1026b4008002eb0004dc250053c0b3000001eb00f2
:1026c40001a02000c0a42000270307008f87e90091
:1026d40024032000841f7800077d200006002200c8
:1026e4008002eb0084a9230063c0b3000001eb0067
:1026f40001a0200040a020001b0307008f87e900f1
:102704000002eb00040f78002600370038f70700ba
:10271400350480000404200004826200e00f5200ab
:102724000200320086c0a9001e0fe8001e027800d5
:102734004422de006302620005002000360020000f
:1027440007002000860f5200878f5a0015003e00b4
:102754000460010003003700060037000900370059
:102764000c003700c4e2a800e982a800e9a2a8008e
:102774000c003700c4e2a900e982a800e9a2a8007d
:1027840008003700c4e2a900e982a900e9a2a80070
:1027940004003700c4e2a900e982a900e9a2a90063
:1027a40000000000041920009e027800848f52006b
:1027b400d6ff3600c4e2a9008869a9000080fa00a7
:1027c40000000600801f7800849fbe00869fbe0024
:1027d4000000fa008560a90014558000e00f520043
:1027e400030032000002eb00145588006500370036
:1027f400151580000408200004826200e00f5200d6
:102804001d0032006652800077528000051480005b
:102814002414800084824200441480008482420094
:102824006414800004824200050020000602420075
:1028340087824a00645288007552880026508000be
:1028440037508000151480003414800084824200c4
:102854005414800084824200741480000482420074
:10286400050020000602420087824a0024508800a6
:10287400355088001c003700665280007752800073
:1028840085148000a414800084824200c414800053
:1028940084824200e4148000048242000500200087
:1028a4000602420087824a006452880075528800fa
:1028b400265080003750800095148000b4148000a6
:1028c40084824200d414800084824200f414800084
:1028d40004824200050020000602420087824a006a
:1028e400245088003550880004558000640242005a
:1028f4000455880005558000f40f2000848f520091
:102904002000360064528000755280004c2bdd009c
:102914004422de0004027300c42ade0064528800ec
:102924007552880064528000755280000402780059
:10293400845288006022b80064528800755288006e
:1029440024508000355080004c2bdd004422de00f2
:1029540004027300c42ade00245088003550880025
:1029640024508000355080000402780044508800d0
:102974006022b80024508800355088000002eb0023
:10298400045588000080fa004f03be004f02be00c9
:102994004f007800004006000000fa00000000002c
:1029a400000000000000fe000080fa000040060065
:1029b4001000fa00000f78002147980022079800c1
:1029c4003307980044079800550798006607980055
:1029d400770798001e027800ae429000054a7800fe
:1029e4001e0278006e039000fe0390001602980009
:1029f400270298001e0278003ebb9700cebb9700ca
:102a040036029800470298001e0378000400200054
:102a1400e500200054039800650398001e03780025
:102a240004002000e500200074039800050b9800c2
:102a34001e027800e4029000540290000400be00dc
:102a4400ba0707001e027800c40290003402900006
:102a54000400be00c60707001e027800a40290000e
:102a6400140290000400be00b00707001e027800a4
:102a740024529000e04f5200060032001e027800fb
:102a8400840a9000740290000400be00a7070700a7
:102a9400050037001e027800840a9000740290003a
:102aa4000400be00b20707001e027800e402900092
:102ab400540290000400be00d00707001e027800f4
:102ac400c4029000340290000400be00cb0707004b
:102ad4001e027800a4029000140290000400be00bc
:102ae400c60707001e027800840a90007402900052
:102af4000400be00c10707001e02780014407800dd
:102b04002e039000be0390004e029000de0290005f
:102b140003002a000001eb00f1532000ff0307002b
:102b24000080fa00000006000200fa00000f78009e
:102b34001e027800e4029000540290000400be00db
:102b44008b070700000000000000000000000000e8
:102b5400000000001e027800e4029000540290007d
:102b64000400be00710707000080fa0000000600a0
:102b74001000fa0050079800610798007207980047
:102b84000042eb00044f78005e029000a402900023
:102b9400140290000400be00750707005e02900056
:102ba40014427800844078006e009000a604070068
:102bb4000002be0034079800450798003e039000c9
:102bc400ce0390000400200015112100840f53004f
:102bd400858f5b0002003a0014c0b300044f7800f4
:102be4001e427800e04f520010003a005e0290004e
:102bf40014427800844078007e009000920407001c
:102c04000002be0034079800450798003e03900078
:102c1400ce0390000400200015112100840f5300fe
:102c2400858f5b0001003a001e14a0005e02900034
:102c3400a4029000140290000400be003b070700a9
:102c44000000000000000000000000000000000080
:102c54005e029000a4029000140290000400be00e2
:102c6400430707001e427800e04f520012003a006a
:102c74005e0290001442780084407800000f200027
:102c8400710407000002be0034079800450798004d
:102c94003e029000140798003e039000ce0390007b
:102ca4000400200015112100840f5300858f5b0060
:102cb40001003a001e24a0001e427800e04f52009a
:102cc40012003a005e0290001442780084407800ba
:102cd4000000eb005c0407000002be00340798000b
:102ce400450798003e029000240798003e03900098
:102cf400ce0390000400200015112100840f53001e
:102d0400858f5b0001003a001e34a0005e02900033
:102d1400a4029000140290000400be000307070000
:102d24009e0290006e029000848f520001003200d7
:102d34001e44a000ae0290007e029000848f5200d8
:102d44000200320004c2b3001e4f72001e4278001b
:102d5400e04f520003003200f45580000402e80002
:102d6400f45588001e427800044078000080fa0080
:102d7400000006001400fa0050079800610798004c
:102d840072079800030f9800140f98000042eb009c
:102d9400044f78005e029000a40290001402900098
:102da4000400be00f20607005e02900014427800a0
:102db400844078006e009000230407000002be00e7
:102dc40034079800450798003e039000ce03900016
:102dd4000400200015112100840f5300858f5b002f
:102de40002003a0014c0b300044f78001e42780079
:102df400e04f520010003a005e0290001442780046
:102e0400844078007e0090000f0407000002be009a
:102e140034079800450798003e039000ce039000c5
:102e24000400200015112100840f5300858f5b00de
:102e340001003a001e14a0005e029000a40290005b
:102e4400140290000400be00b80607000000000051
:102e54000000000000000000000000005e0290007e
:102e6400a4029000140290000400be00c0060700f3
:102e74005e02900014427800844078000e089000ae
:102e8400f10307000002be003407980045079800cc
:102e94003e029000140798003e039000ce03900079
:102ea4000400200015112100840f5300858f5b005e
:102eb40002003a0014c0b300044f78001e427800a8
:102ec400e04f520012003a005e0290001442780073
:102ed400844078001e089000db0307000002be0057
:102ee40034079800450798003e0290002407980094
:102ef4003e039000ce039000040020001511210031
:102f0400840f5300858f5b0001003a001e14a0005b
:102f14009e0290006e029000848f520001003200e5
:102f24001e44a000ae0290007e029000848f5200e6
:102f34000200320004c2b3001e4f72005e02900011
:102f4400a4029000140290000400be00770607005b
:102f5400000000000000000000000000000000006d
:102f64005e029000a4029000140290000400be00cf
:102f74007f0607001e427800e04f520012003a001c
:102f84005e0290001442780084407800000f200014
:102f9400ad0307000002be003407980045079800ff
:102fa4003e029000140798003e039000ce03900068
:102fb4000400200015112100840f5300858f5b004d
:102fc40001003a001e24a0001e427800e04f520087
:102fd40012003a005e0290001442780084407800a7
:102fe4000000eb00980307000002be0034079800bd
:102ff400450798003e029000240798003e03900085
:10300400ce0390000400200015112100840f53000a
:10301400858f5b0001003a001e34a0005e02900020
:10302400a4029000140290000400be003f060700b2
:103034009e0290000e0a9000848f5200010032001c
:103044001e44a000ae0290001e0a9000848f52001d
:103054000200320004c2b3001e4f72001e42780008
:10306400e04f520003003200f45580000402e800ef
:10307400f45588001e427800044078000080fa006d
:10308400000006001000fa0060079800710798001d
:103094000042eb00044f78000042eb0064479800c4
:1030a400570037006e029000a402900014029000b2
:1030b4000400be002e0607006e0290001442780041
:1030c4006e43900005c3b300854273008582fb0004
:1030d40084407800050078005b0307000002be000e
:1030e40044079800550798004e0290001407980072
:1030f4004e039000de03900004002000151121000f
:10310400840f5300858f5b0002003a0014c0b300a3
:10311400044f78001e427800e04f520018003a0035
:103124006e02900014427800ee4290008582fb000b
:10313400858242007e039000850243009502780058
:1031440084407800050078003f0307000002be00b9
:1031540044079800550798004e02900024079800f1
:103164004e039000de03900004002000151121009e
:10317400840f5300858f5b0001003a001e14a000e9
:103184006e429000e04f5200150032006e429000f3
:103194000482fb008402e90004032000050272009b
:1031a400840278001e029000848f520001003200d5
:1031b4001e24a0006e4290000482fb000402e90079
:1031c40004024200fe02900004824200940278004d
:1031d4002e029000848f5200010032001e34a000a1
:1031e4006e029000a4029000140290000400be003d
:1031f400ce0507006e4290000442e8006447980040
:103204001e427800e04f520003003a006e429000e4
:10321400e74f5200a3ff36006e029000a402900014
:10322400140290000400be00d10507001e4278007d
:10323400e04f520012003a006e02900014427800ef
:1032440084407800000f2000ff0207000002be0047
:1032540044079800550798004e0290001407980000
:103264004e039000de03900004002000151121009d
:10327400840f5300858f5b0001003a001e04a000f8
:103284001e427800e04f520012003a006e02900095
:1032940014427800844078000000eb00ea02070042
:1032a4000002be0044079800550798004e029000a3
:1032b400240798004e039000de03900004002000d1
:1032c40015112100840f5300858f5b0001003a0023
:1032d4001e14a0006e029000a4029000140290003c
:1032e4000400be00910507006e4290000482fb00ba
:1032f4008402e900040320000502720084027800bd
:103304001e029000848f5200010032001e44a0006f
:103314006e4290000482fb000402e90004024200b1
:10332400fe02900004824200940278002e02900073
:10333400848f52000200320004c2b3001e4f720098
:103344001e427800e04f5200030032000456800011
:103354000402e800045688001e4278000440780005
:103364000080fa00000006001200fa00100798001e
:103374002107980032079800034f980054079800db
:103384006507980076079800070f98000002eb0085
:10339400040f78001e0390006022b800048bbe0066
:1033a4001e0290008002eb00250298001e0290008d
:1033b4008002eb00350298001e029000ae029000dd
:1033c400450298001e029000be029000550298002b
:1033d4000e4a9000ef4f52000d0036001e0290007e
:1033e40005002800650298001e0290008002eb0090
:1033f400750298001e02900005002800050a980036
:103404001e0290008002eb00150a98001f0037008e
:103414000e4a90000482fb000404b0004222dd0046
:10342400040f78001e00780066f807000002780098
:10343400840278001e029000750298001e02e800c3
:10344400040078005ff80700000278009e029000f4
:10345400e40298001e82e8000400780059f807008e
:1034640000027800840278001e029000150a980079
:103474009e027800638242000400780051f807003d
:10348400000278009e029000840a98001e029000b8
:10349400de029000250a98001e029000ee029000c1
:1034a400350a98001e029000fe029000550a98000a
:1034b4001e0290008e0a9000650a98001e02900079
:1034c4008002eb00750a98001e0290008002eb0057
:1034d400051298001e029000ceba970015129800ab
:1034e4000080fa00000006001000fa00100798009f
:1034f4002107980032079800034f9800540798005a
:1035040065079800760798000002eb00040f780026
:103514001e0290008002eb00250298001e0290001b
:10352400de029000350298001e029000ee02900028
:10353400450298001e029000fe0290005502980079
:103544001e029000ae029000650298001e029000d8
:10355400be029000750298000e4a9000e74f520098
:103564000d0036001e02900005002800050a980090
:103574001e0290008002eb00150a98001e029000c3
:1035840005002800250a98001e0290008002eb0026
:10359400350a98001f0037000e4a90000482fb0091
:1035a4000405b0004222dd00040f78001e007800fc
:1035b40004f8070000027800840278001e029000dc
:1035c400150a98001e02e80004007800fdf70700c1
:1035d400000278009e029000840a98001e82e8008f
:1035e40004007800f7f707000002780084027800ee
:1035f4001e029000350a98009e0278006382420001
:1036040004007800eff70700000278009e029000a3
:10361400a40a98000080fa00000006000400fa00e2
:10362400100798001e029000740390001e02900080
:10363400e40290001e029000140278000601780053
:1036440085007800040078004b050700000278002c
:10365400040f78001e029000940a90001e0290004d
:10366400040a900005017800840078001e007800a8
:103674002c05070000027800040f78001e02900059
:10368400b40a90001e029000240a900005017800fc
:10369400840078001e0078002205070000027800ec
:1036a400040f78001e02900024029000e00f5200e4
:1036b40003003a001e029000d4029000050f780027
:1036c4001e0290009e027800150298000080fa0005
:1036d400000006000400fa00100798001e02900083
:1036e400140b90001e029000840a90001e029000a9
:1036f4002402900006017800850078000400780018
:103704000805070000027800040f78001e029000ec
:10371400f40290001e0290006402900005017800fb
:10372400840078001e007800fe0407000002780080
:10373400040f78001e029000d40290001e02900034
:103744004402900005017800840078001e0078008f
:103754000905070000027800040f78001e0290009b
:103764009e027800350298000080fa0000000600ee
:103774000400fa00000f7800110798001e02780078
:10378400b40290001e029000848f520003003100a6
:103794001e027800b4029000150798001e027800fb
:1037a400c40290001e029000848f52000300360071
:1037b4001e027800c4029000150798001e027800cb
:1037c4009e029000050a78000080fa0000000600be
:1037d4000200fa00000f78001e027800b402900084
:1037e4001e027800240a9000848f520002003600e2
:1037f40014002000010037000002eb0004007800f0
:103804000080fa00000006000200fa00000f7800b1
:103814001e027800b40290001e027800340a900060
:10382400848f520002003100140020000100370090
:103834000002eb00040078000080fa00000006009b
:103844000400fa00100798001e029000d40a9000a9
:103854001e029000440a90000001eb0085007800ed
:1038640004007800af04070000027800040f780019
:103874001e029000640a90009e0f5200030036005e
:103884001e029000e40a9000050f780004f02f0057
:103894009e0252001e029000440a9000848f52003f
:1038a400040036001e029000440a90001e0f4200dd
:1038b4000200370004f02f00040f78001e0290006d
:1038c400340290009e0f5200060036001e02900043
:1038d400740a90008402e8001e029000750a9800a1
:1038e400090037001e029000740a9000e00f520095
:1038f400050032001e029000740a90008402e90060
:103904001e029000750a98001e029000f40a9000ae
:103914001e02900014129000848f52000f00390090
:103924001e029000f40a90001e02900014129000ef
:1039340004024200848f5200060039001e029000e7
:103944001412900004024200840278001e029000c7
:10395400750a980014002000010037000002eb00f3
:10396400040078000080fa00000006000400fa0059
:10397400100798001e029000d40a90001e029000c6
:10398400440a90000001eb008500780004007800f0
:103994006404070000027800040f78001e029000ff
:1039a400640a90009e0f5200030036001e0290002d
:1039b400e40a9000050f78001e029000440a90006b
:1039c4009e0f5200040036001e029000440a90002c
:1039d4001e0f5200020037000002eb00040f7800b3
:1039e4001e029000340290009e0f52000600310027
:1039f4001e029000041290008402e8001e0290004f
:103a040005129800090037001e029000041290006d
:103a1400e00f5200050032001e02900004129000d4
:103a24008402e9001e029000051298001e02900014
:103a3400841290001e02900014129000848f520091
:103a44000f0039001e029000841290001e029000a4
:103a54001412900004024200848f520006003900c0
:103a64001e029000141290000402420084027800a6
:103a74001e02900005129800140020000100370077
:103a84000002eb00040078000080fa000000060049
:103a94000000fa00a21b2800010120000001200000
:103aa40070f70700a21b280001012000100120006c
:103ab4006cf70700a21b2800010120002001200050
:103ac40068f70700a21b2800010120003001200034
:103ad40064f70700a21b2800010120004001200018
:103ae40060f70700a21b28000101200050012000fc
:103af4005cf70700a21d28000101200060012000de
:103b040058f70700a21d28000101200070012000c1
:103b140054f707000080fa00000006001400fa00c1
:103b240040479800310798004207980053079800cf
:103b34006407980075079800060f9800170f9800ff
:103b44003e029000f401b300340798000e0b90007d
:103b54009e0b9000463add00ca32de0085027200f8
:103b64004632dd006e019000fe0190000400be00ac
:103b7400eff107000002be00048fbe000420200005
:103b8400050020001e03be00840f5300858f5b00d8
:103b940003003e0014002000645588003200370002
:103ba40034802000050020001e03be00840f530053
:103bb400858f5b000d003e004400200064558800a2
:103bc4001e02be004e2bdd004222de000402730002
:103bd400c22ade00048fbe00be029000e4ff2f0064
:103be40004826200340798001f003700f4002200aa
:103bf400050020001e03be00840f5300858f5b0068
:103c04000d003e0004012000645588001e02be0021
:103c14004c2bdd004422de0004027300c42ade00c3
:103c2400048fbe00be029000d4ff2f000482620005
:103c3400340798000c003700040420006455880001
:103c44001e02be004a2bdd004622de000402730081
:103c5400c62ade00048fbe00be029000c4ff2f00ff
:103c64000482620034079800041c20000500200030
:103c74001e03be00840f5300858f5b0008003600ce
:103c8400645580004322dd0064558800be02900024
:103c940034fe2f0004826200340798005700370076
:103ca40004182000050020001e03be00840f5300ea
:103cb400858f5b0009003600645580006722b900d7
:103cc4000402780064558800be02900074fe2f0040
:103cd400048262003407980048003700041420006e
:103ce400050020001e03be00840f5300858f5b0077
:103cf40009003600645580006622b9000402780089
:103d040064558800be029000b4fe2f000482620055
:103d14003407980039003700041020000500200003
:103d24001e03be00840f5300858f5b00090036001c
:103d3400645580006522b900040278006455880047
:103d4400be029000f4fe2f00048262003407980043
:103d54002a003700040c2000050020001e03be00ca
:103d6400840f5300858f5b00080036006455800083
:103d74004222dd0064558800be02900034ff2f000b
:103d840004826200340798001c00370004082000f5
:103d9400050020001e03be00840f5300858f5b00c6
:103da40009003600645580006322b90004027800db
:103db40064558800be02900074ff2f0004826200e4
:103dc400340798000d00370004042000050020008b
:103dd4001e03be00840f5300858f5b00070036006e
:103de400645580000402420064558800be029000bd
:103df400b4ff2f00048262003407980064558000e9
:103e04004222dd00645588004e429000e14f52008a
:103e140004003a003e029000141188005e039000f2
:103e2400061188004e429000e24f520004003a000e
:103e34003e029000441188005e0390003611880011
:103e44000080fa00000006000c00fa004007980009
:103e5400214f98000042eb00044f78002e4a900056
:103e6400e14f520054003a008500a9004e02900030
:103e7400241188000002eb00340798001800370072
:103e84003e0290000402e800340798006455800064
:103e9400be029000848f52000300360034c0b30089
:103ea400044f78000e003700051180000404200040
:103eb40004826200e00f52000300320044c0b300e9
:103ec400044f78000600370004118000620262008b
:103ed400e00f520002003a0014c0b300044f78000f
:103ee4001e427800e04f5200e5ff32002000370008
:103ef4003e0290000402e8003407980064558000f4
:103f0400be029000848f52000300360034c0b30018
:103f1400044f7800160037000511800004042000c7
:103f240004826200e00f52000300320044c0b30078
:103f3400044f78000e003700250480000410200090
:103f440004826200e00f52000300320024c0b30078
:103f5400044f7800060037000411800061026200fb
:103f6400e00f52000200320024c0b300044f780076
:103f74001e427800e14f5200ddff32001e427800fd
:103f8400e24f520005003a00241180000500200091
:103f94001407980025079800070037000400200044
:103fa4001511210014079800250798007455800006
:103fb4000402e800745588002e4a9000e24f520033
:103fc4004d003a008740a9004e0290005411880029
:103fd4000002eb0034079800180037003e029000fe
:103fe4000402e8003407980064558000be02900083
:103ff400848f52000300360034c0b300044f7800ad
:104004000e00370035118000040420000482620091
:10401400e00f52000300320044c0b300044f7800a4
:10402400060037003411800062026200e00f520083
:1040340002003a0014c0b300044f78001e42780016
:10404400e04f5200e5ff3200190037003e029000b5
:104054000402e8003407980064558000be02900012
:10406400848f52000300360034c0b300044f78003c
:104074000f00370035118000040420000482620020
:10408400e00f52000300320044c0b300044f780034
:1040940007003700350480000440200004826200d9
:1040a400e00f52000200320024c0b300044f780035
:1040b4001e427800e14f5200e4ff32001e427800b5
:1040c400e24f520005003a00541180000500200020
:1040d4001407980025079800070037000400200003
:1040e40015112100140798002507980084558000b5
:1040f4000402e800845588001e029000ae0290007d
:104104000400be000080fa00000006001400fa005b
:1041140040479800310798004207980053079800d9
:104124006407980075079800060f9800170f980009
:104134004e019000de0190006e009000fe009000a1
:104144007bf007000002be00048fbe001e02780050
:104154004422dd00e45588006e029000fe029000c7
:1041640052cd2d00230320000400be0070f0070090
:104174000002be001e1f12001e971a000082eb00f0
:104184008082eb001e0f42005e974a001e03be00b1
:104194001400200005002000840f5300858f5b006d
:1041a40003003e002400200005002000048fbe0010
:1041b400f4ff2f00050020001e03be00840f5300ef
:1041c400858f5b00030036002400200005002000da
:1041d400048fbe004e429000e04f520003003200b4
:1041e4004e429000e14f520004003a00be0290009b
:1041f400351088001e027800241088000080fa0020
:10420400000006000600fa00404798000002eb0098
:10421400140798004e429000e04f52000300320011
:104224004e429000e14f520013003a000002eb00ae
:10423400040f78000b0037001e0fe800e4558000df
:104244009e027800848f520006003600041020007d
:1042540014079800d45580000402e800d45588005f
:104264000500370045108000040024000482620029
:10427400e00f5200f0ff3a001e02900004007800a4
:104284000080fa00000006000600fa00404798008b
:104294000002eb00140798004e429000e04f5200d9
:1042a400030032004e429000e14f520013003a00e6
:1042b4000602a8000002eb00040f78000b00370090
:1042c4001e0fe800e45580009e027800848f52009f
:1042d400060036000420200014079800d4558000fe
:1042e4000402e800d455880004003700341080002c
:1042f40061026200e00f5200f1ff3a001e029000da
:10430400040078000080fa00000006000600fa00ad
:10431400404798000002eb00140798004e429000ba
:10432400e04f5200030032004e429000e14f520031
:1043340013003a000622a8000002eb00040f7800e4
:104344000b0037001e0fe800e45580009e02780041
:10435400848f5200060036000440200014079800a1
:10436400d45580000402e800d455880004003700c6
:104374003410800062026200e00f5200f1ff3a0044
:104384001e029000040078000080fa00000006007d
:104394000600fa0040479800514798000002eb00dd
:1043a400140798005e429000e04f52000300320070
:1043b4005e429000e14f520028003a004e429000c5
:1043c4000482fb00141088000002eb00040f780044
:1043d4000c0037001e0fe800e45580009e027800b0
:1043e400848f5200070036000480200014079800d0
:1043f400d45580000402e800d45588000000000071
:10440400110037004510800004002400048262007b
:10441400e00f5200efff32000b0037001e0fe800e0
:10442400e45580009e027800848f52000600360016
:104434000480200014079800d45580000402e8008a
:10444400d45588000500370045108000040024007e
:1044540004826200e00f5200f0ff3a001e02900056
:10446400040078000080fa00000006000600fa004c
:10447400404798000002eb00140798004e42900059
:10448400e04f5200030032004e429000e14f5200d0
:104494002b003a000662a8000002eb00040f78002b
:1044a4000c0037001e0fe800e45580009e027800df
:1044b400848f52000700360004002100140798007e
:1044c400d45580000402e800d455880000000000a0
:1044d400100037003410800068026200e00f5200c0
:1044e400f0ff3a000b0037001e0fe800e45580008f
:1044f4009e027800848f52000600360004002100da
:1045040014079800d45580000402e800d4558800ac
:10451400040037004410800062026200e00f520081
:10452400f1ff32001e029000e00f520004003a0036
:1045340005108000f40f2000048262001407980024
:104544001e029000040078000080fa0000000600bb
:104554000600fa00404798000002eb001407980098
:104564004e429000e04f5200030032004e42900051
:10457400e14f520013003a000642a8000002eb008b
:10458400040f78000b0037001e0fe800e45580008c
:104594009e027800848f5200060036000400220038
:1045a40014079800d45580000402e800d45588000c
:1045b400040037003410800064026200e00f5200ef
:1045c400f1ff3a001e029000040078000080fa0017
:1045d400000006000600fa00404798000002eb00c5
:1045e400040f78000002eb00140798004e4290007c
:1045f400e04f5200030032004e429000e14f52005f
:1046040012003a0006a2a9000682a8000b00370097
:104614001e0fe800e45580009e027800848f52004b
:10462400060036000400240014079800d4558000c6
:104634000402e800d45588000400370034108000d8
:1046440070026200e00f5200f1ff3a001e02900077
:10465400040078000080fa00000006000600fa005a
:10466400404798000002eb00040f78000002eb00c2
:10467400140798004e429000e04f520003003200ad
:104684004e429000e14f520012003a0006a2a800e8
:104694000682a8000b0037001e0fe800e4558000d6
:1046a4009e027800848f5200060036000400280021
:1046b40014079800d45580000402e800d4558800fb
:1046c400040037003410800070026200e00f5200d2
:1046d400f1ff3a001e029000040078000080fa0006
:1046e40000000600100190009000780001005100c5
:1046f4000000e900f000b200000006001001900084
:104704009000780002805000f000b2000000060023
:104714001170a6001a003700e40140009309e80074
:10472400900190001001e800f200b2000310e100d3
:1047340010003200100178006a11b800e80140004e
:10474400828141006e815000921978006601410017
:10475400b2197800b2197800b2197800b219780049
:104764001001e800f200b20002087800e6014000ff
:104774009309e900e60140009309e8001170a100e3
:10478400000006001170a600090037006e81500079
:104794001218780066014100321878003218780047
:1047a40032187800321878001170a1000800370020
:1047b400827f21000218780002002000021878008d
:1047c40002187800021878000218780031003700c7
:1047d40000000600e40140009309e8009001900005
:1047e4001001e800f200b2000310e1000e003200f4
:1047f400100178006a11b800e8014000828141008c
:10480400b1197800b1197800b1197800b11978009c
:10481400b11978001001e800f200b2000208780033
:10482400e60140009309e900e60140009309e8002d
:104834000000060010019000900178000310e100d0
:1048440008003a00837f21008318780003002000c9
:104854008318780083187800831878008318780008
:104864000c0037006a11b8006801410000014100e2
:10487400b2187800b2187800b2187800b21878002c
:10488400b2187800100190000201e800f200b200b2
:1048940012009800000006001130a7001300370032
:1048a40010019000900178000310e1000f00320025
:1048b4006a11b8006801410000014100ee81500016
:1048c400b2097800e6814100b2197800b219780083
:1048d400b2197800b21978001130a00010019000cc
:1048e4000201e800f200b200120098000000060085
:1048f4001130a1006e81500030097800660141003a
:10490400301978003019780030197800301978009f
:104914001130a000000006000018eb000018eb00a6
:104924000018eb000008eb00000006000160010025
:10493400c422b70000000600ca22b7000000060027
:10494400d022b70000000600d622b70000000600ff
:104954000000000000000600e222b700000006008c
:10496400e822b70000000600000000000000060076
:104974000080ea0001600100c422b60000000600c5
:10498400ca22b60000000600d022b60000000600cd
:10499400d622b60000000600000000000000060059
:1049a400e222b60000000600e822b600000006007d
:1049b400000000000000060001600100c022b700f2
:1049c40000000600c622b70000000600cc22b70093
:1049d40000000600d222b70000000600000000001c
:1049e40000000600de22b70000000600e422b70043
:1049f4000000060000000000000006000080ea003d
:104a040001600100c022b60000000600c622b60004
:104a140000000600cc22b60000000600d222b60038
:104a2400000006000000000000000600de22b600c0
:104a340000000600e422b6000000060000000000aa
:104a4400000006000400fa00100798001e029000ff
:104a5400c4029000050f78009e027800042027000d
:104a6400848f52000c003a001e0290002402900031
:104a74008400780000a720003dfb07001e02900080
:104a8400140290008400780080a8200038fb0700fe
:104a94008849a90004003700b44d80000402e800ee
:104aa400b44d8800000000000080fa0000000600f9
:104ab4000000fa007451800097528000364f800045
:104ac4005550800087017800060178008500780041
:104ad400c00720001af007000080fa00000006005a
:104ae4000000fa0046548000855380000002eb0069
:104af400860178000001eb0085007800d0072000d3
:104b04000ff007000080fa00000006000000fa0021
:104b14000080fa00000006000000fa000080fa009d
:104b2400000006000200e00005003b000200400017
:104b34000800310000002000b22aec000500370014
:104b44000200400003003900f0ff2f00b22aec00fd
:104b5400000037000101b8006218b8000100e0004d
:104b640002003200f0ff2f00b22aec00cf10de006a
:104b740001007000000006000200e00005003b0098
:104b8400020040000800310000002000b42aec00bc
:104b9400050037000200400003003900f0ff2f0039
:104ba400b42aec00000037000101b8007018b80006
:104bb4000100e00002003200f0ff2f00b42aec00f4
:0c4bc400cc10de000100700000000600b4
:020000040000fa
:104bd000b20a00000400000000000000b60a000055
:104be0000400000000000000ba0a000004000000f9
:104bf00000000000ac0a00000600000000000000f9
:104c0000be0a0000040000000000000000080000d0
:104c1000cc01000000000000cc090000e000000012
:084c200000000000000000008c
:020000040000fa
:0200000401f009
:04000000ecbb000055
:020000040000fa
:0200000401f009
:04000400f7ff000002
:020000040000fa
:0200000401f009
:040008004cff0000a9
:020000040000fa
:0200000401f009
:04000c00ffff0000f2
:020000040000fa
:0200000401f009
:04001000ffff0000ee
:020000040000fa
:0200000401f009
:04001400ffff0000ea
:020000040000fa
:0200000401f009
:04001800ffff0000e6
:00000001FF
